{
  "contractName": "MultiSigWallet",
  "abi": [
    {
      "constant": true,
      "inputs": [
        {
          "name": "",
          "type": "uint256"
        }
      ],
      "name": "_transactions",
      "outputs": [
        {
          "name": "source",
          "type": "address"
        },
        {
          "name": "destination",
          "type": "address"
        },
        {
          "name": "value",
          "type": "uint256"
        },
        {
          "name": "signatureCount",
          "type": "uint256"
        }
      ],
      "payable": false,
      "stateMutability": "view",
      "type": "function"
    },
    {
      "constant": true,
      "inputs": [],
      "name": "_transactionIndex",
      "outputs": [
        {
          "name": "",
          "type": "uint256"
        }
      ],
      "payable": false,
      "stateMutability": "view",
      "type": "function"
    },
    {
      "constant": true,
      "inputs": [],
      "name": "_owner",
      "outputs": [
        {
          "name": "",
          "type": "address"
        }
      ],
      "payable": false,
      "stateMutability": "view",
      "type": "function"
    },
    {
      "constant": true,
      "inputs": [
        {
          "name": "",
          "type": "uint256"
        }
      ],
      "name": "_pendingTransactions",
      "outputs": [
        {
          "name": "",
          "type": "uint256"
        }
      ],
      "payable": false,
      "stateMutability": "view",
      "type": "function"
    },
    {
      "constant": true,
      "inputs": [
        {
          "name": "",
          "type": "address"
        }
      ],
      "name": "_owners",
      "outputs": [
        {
          "name": "",
          "type": "uint8"
        }
      ],
      "payable": false,
      "stateMutability": "view",
      "type": "function"
    },
    {
      "inputs": [],
      "payable": false,
      "stateMutability": "nonpayable",
      "type": "constructor"
    },
    {
      "payable": true,
      "stateMutability": "payable",
      "type": "fallback"
    },
    {
      "anonymous": false,
      "inputs": [
        {
          "indexed": false,
          "name": "source",
          "type": "address"
        },
        {
          "indexed": false,
          "name": "amount",
          "type": "uint256"
        }
      ],
      "name": "DepositFunds",
      "type": "event"
    },
    {
      "anonymous": false,
      "inputs": [
        {
          "indexed": false,
          "name": "source",
          "type": "address"
        },
        {
          "indexed": false,
          "name": "destination",
          "type": "address"
        },
        {
          "indexed": false,
          "name": "value",
          "type": "uint256"
        },
        {
          "indexed": false,
          "name": "transactionID",
          "type": "uint256"
        }
      ],
      "name": "TransactionCreated",
      "type": "event"
    },
    {
      "anonymous": false,
      "inputs": [
        {
          "indexed": false,
          "name": "source",
          "type": "address"
        },
        {
          "indexed": false,
          "name": "destination",
          "type": "address"
        },
        {
          "indexed": false,
          "name": "value",
          "type": "uint256"
        },
        {
          "indexed": false,
          "name": "transactionID",
          "type": "uint256"
        }
      ],
      "name": "TransactionCompleted",
      "type": "event"
    },
    {
      "anonymous": false,
      "inputs": [
        {
          "indexed": false,
          "name": "by",
          "type": "address"
        },
        {
          "indexed": false,
          "name": "transactionID",
          "type": "uint256"
        }
      ],
      "name": "TransactionSigned",
      "type": "event"
    },
    {
      "constant": false,
      "inputs": [
        {
          "name": "newOwner",
          "type": "address"
        }
      ],
      "name": "addOwner",
      "outputs": [],
      "payable": false,
      "stateMutability": "nonpayable",
      "type": "function"
    },
    {
      "constant": false,
      "inputs": [
        {
          "name": "existingOwner",
          "type": "address"
        }
      ],
      "name": "removeOwner",
      "outputs": [],
      "payable": false,
      "stateMutability": "nonpayable",
      "type": "function"
    },
    {
      "constant": false,
      "inputs": [
        {
          "name": "amount",
          "type": "uint256"
        }
      ],
      "name": "withdraw",
      "outputs": [],
      "payable": true,
      "stateMutability": "payable",
      "type": "function"
    },
    {
      "constant": false,
      "inputs": [
        {
          "name": "destination",
          "type": "address"
        },
        {
          "name": "value",
          "type": "uint256"
        }
      ],
      "name": "transferTo",
      "outputs": [],
      "payable": false,
      "stateMutability": "nonpayable",
      "type": "function"
    },
    {
      "constant": true,
      "inputs": [],
      "name": "getPendingTransactions",
      "outputs": [
        {
          "name": "",
          "type": "uint256[]"
        }
      ],
      "payable": false,
      "stateMutability": "view",
      "type": "function"
    },
    {
      "constant": false,
      "inputs": [
        {
          "name": "transactionId",
          "type": "uint256"
        }
      ],
      "name": "signTransaction",
      "outputs": [],
      "payable": false,
      "stateMutability": "nonpayable",
      "type": "function"
    },
    {
      "constant": false,
      "inputs": [
        {
          "name": "transactionId",
          "type": "uint256"
        }
      ],
      "name": "deleteTransaction",
      "outputs": [],
      "payable": false,
      "stateMutability": "nonpayable",
      "type": "function"
    },
    {
      "constant": true,
      "inputs": [],
      "name": "walletBalance",
      "outputs": [
        {
          "name": "",
          "type": "uint256"
        }
      ],
      "payable": false,
      "stateMutability": "view",
      "type": "function"
    }
  ],
  "bytecode": "0x6060604052341561000f57600080fd5b336000806101000a81548173ffffffffffffffffffffffffffffffffffffffff021916908373ffffffffffffffffffffffffffffffffffffffff1602179055506112d58061005e6000396000f3006060604052600436106100c4576000357c0100000000000000000000000000000000000000000000000000000000900463ffffffff168062e9c006146101315780630b92880e14610154578063173825d9146101f85780632ccb1b30146102315780632e1a7d4d146102735780635d9ec2101461028b5780637065cb48146102ae5780638002f628146102e7578063b2bdfa7b14610310578063b58a506614610365578063bf3a5c021461039c578063cd0a314b146103ef578063d11db83f14610418575b7fd241e73300212f6df233a8e6d3146b88a9d4964e06621d54b5ff6afeba7b1b883334604051808373ffffffffffffffffffffffffffffffffffffffff1673ffffffffffffffffffffffffffffffffffffffff1681526020018281526020019250505060405180910390a1005b341561013c57600080fd5b6101526004808035906020019091905050610482565b005b341561015f57600080fd5b6101756004808035906020019091905050610684565b604051808573ffffffffffffffffffffffffffffffffffffffff1673ffffffffffffffffffffffffffffffffffffffff1681526020018473ffffffffffffffffffffffffffffffffffffffff1673ffffffffffffffffffffffffffffffffffffffff16815260200183815260200182815260200194505050505060405180910390f35b341561020357600080fd5b61022f600480803573ffffffffffffffffffffffffffffffffffffffff169060200190919050506106f4565b005b341561023c57600080fd5b610271600480803573ffffffffffffffffffffffffffffffffffffffff169060200190919080359060200190919050506107ab565b005b6102896004808035906020019091905050610a90565b005b341561029657600080fd5b6102ac6004808035906020019091905050610b57565b005b34156102b957600080fd5b6102e5600480803573ffffffffffffffffffffffffffffffffffffffff16906020019091905050610f6b565b005b34156102f257600080fd5b6102fa611022565b6040518082815260200191505060405180910390f35b341561031b57600080fd5b610323611028565b604051808273ffffffffffffffffffffffffffffffffffffffff1673ffffffffffffffffffffffffffffffffffffffff16815260200191505060405180910390f35b341561037057600080fd5b610386600480803590602001909190505061104d565b6040518082815260200191505060405180910390f35b34156103a757600080fd5b6103d3600480803573ffffffffffffffffffffffffffffffffffffffff16906020019091905050611071565b604051808260ff1660ff16815260200191505060405180910390f35b34156103fa57600080fd5b610402611091565b6040518082815260200191505060405180910390f35b341561042357600080fd5b61042b6110b0565b6040518080602001828103825283818151815260200191508051906020019060200280838360005b8381101561046e578082015181840152602081019050610453565b505050509050019250505060405180910390f35b6000806000809054906101000a900473ffffffffffffffffffffffffffffffffffffffff1673ffffffffffffffffffffffffffffffffffffffff163373ffffffffffffffffffffffffffffffffffffffff16148061052f57506001600360003373ffffffffffffffffffffffffffffffffffffffff1673ffffffffffffffffffffffffffffffffffffffff16815260200190815260200160002060009054906101000a900460ff1660ff16145b151561053a57600080fd5b60009150600090505b6001805490508110156105d1578160ff166001141561059c5760018181548110151561056b57fe5b906000526020600020900154600180830381548110151561058857fe5b9060005260206000209001819055506105c4565b6001818154811015156105ab57fe5b9060005260206000209001548314156105c357600191505b5b8080600101915050610543565b6001808080549050038154811015156105e657fe5b906000526020600020900160009055600180548091906001900361060a91906111c3565b5060046000848152602001908152602001600020600080820160006101000a81549073ffffffffffffffffffffffffffffffffffffffff02191690556001820160006101000a81549073ffffffffffffffffffffffffffffffffffffffff0219169055600282016000905560038201600090555050505050565b60046020528060005260406000206000915090508060000160009054906101000a900473ffffffffffffffffffffffffffffffffffffffff16908060010160009054906101000a900473ffffffffffffffffffffffffffffffffffffffff16908060020154908060030154905084565b6000809054906101000a900473ffffffffffffffffffffffffffffffffffffffff1673ffffffffffffffffffffffffffffffffffffffff163373ffffffffffffffffffffffffffffffffffffffff1614151561074f57600080fd5b6000600360008373ffffffffffffffffffffffffffffffffffffffff1673ffffffffffffffffffffffffffffffffffffffff16815260200190815260200160002060006101000a81548160ff021916908360ff16021790555050565b6107b36111ef565b6000809054906101000a900473ffffffffffffffffffffffffffffffffffffffff1673ffffffffffffffffffffffffffffffffffffffff163373ffffffffffffffffffffffffffffffffffffffff16148061085d57506001600360003373ffffffffffffffffffffffffffffffffffffffff1673ffffffffffffffffffffffffffffffffffffffff16815260200190815260200160002060009054906101000a900460ff1660ff16145b151561086857600080fd5b813073ffffffffffffffffffffffffffffffffffffffff16311015151561088e57600080fd5b6080604051908101604052803373ffffffffffffffffffffffffffffffffffffffff1681526020018473ffffffffffffffffffffffffffffffffffffffff168152602001838152602001600081525090508060046000600254815260200190815260200160002060008201518160000160006101000a81548173ffffffffffffffffffffffffffffffffffffffff021916908373ffffffffffffffffffffffffffffffffffffffff16021790555060208201518160010160006101000a81548173ffffffffffffffffffffffffffffffffffffffff021916908373ffffffffffffffffffffffffffffffffffffffff1602179055506040820151816002015560608201518160030155905050600180548060010182816109ae9190611244565b916000526020600020900160006002549091909150555060016002600082825401925050819055507f41d8c89c4a25824354aa1f198d80d06f2f93f903a2d180d1ea20429a4678c4a4816000015182602001518360400151600254604051808573ffffffffffffffffffffffffffffffffffffffff1673ffffffffffffffffffffffffffffffffffffffff1681526020018473ffffffffffffffffffffffffffffffffffffffff1673ffffffffffffffffffffffffffffffffffffffff16815260200183815260200182815260200194505050505060405180910390a1505050565b343073ffffffffffffffffffffffffffffffffffffffff163110151515610ab657600080fd5b6001600360003373ffffffffffffffffffffffffffffffffffffffff1673ffffffffffffffffffffffffffffffffffffffff16815260200190815260200160002060009054906101000a900460ff1660ff16141515610b1457600080fd5b3373ffffffffffffffffffffffffffffffffffffffff166108fc829081150290604051600060405180830381858888f193505050501515610b5457600080fd5b50565b60008060009054906101000a900473ffffffffffffffffffffffffffffffffffffffff1673ffffffffffffffffffffffffffffffffffffffff163373ffffffffffffffffffffffffffffffffffffffff161480610c0357506001600360003373ffffffffffffffffffffffffffffffffffffffff1673ffffffffffffffffffffffffffffffffffffffff16815260200190815260200160002060009054906101000a900460ff1660ff16145b1515610c0e57600080fd5b60008160000160009054906101000a900473ffffffffffffffffffffffffffffffffffffffff1673ffffffffffffffffffffffffffffffffffffffff1614151515610c5857600080fd5b6000809054906101000a900473ffffffffffffffffffffffffffffffffffffffff1673ffffffffffffffffffffffffffffffffffffffff163373ffffffffffffffffffffffffffffffffffffffff1614151515610cb457600080fd5b60008160040160003373ffffffffffffffffffffffffffffffffffffffff1673ffffffffffffffffffffffffffffffffffffffff16815260200190815260200160002060009054906101000a900460ff1660ff16141515610d1457600080fd5b60046000600184815481101515610d2757fe5b90600052602060002090015481526020019081526020016000209050600181600301600082825401925050819055507fac63e7e1dc16bccf900879686e74ca33eeb175b670e3aaa9d7e4ccf3781b7a7a3383604051808373ffffffffffffffffffffffffffffffffffffffff1673ffffffffffffffffffffffffffffffffffffffff1681526020018281526020019250505060405180910390a160028160030154101515610f625780600201543073ffffffffffffffffffffffffffffffffffffffff163110151515610df957600080fd5b8060010160009054906101000a900473ffffffffffffffffffffffffffffffffffffffff1673ffffffffffffffffffffffffffffffffffffffff166108fc82600201549081150290604051600060405180830381858888f193505050501515610e6157600080fd5b7f394c4e679790fab24fd86614fd812811c9c835e4c475bdfc3d26fd0d6f7ca6fd8160000160009054906101000a900473ffffffffffffffffffffffffffffffffffffffff168260010160009054906101000a900473ffffffffffffffffffffffffffffffffffffffff16836002015485604051808573ffffffffffffffffffffffffffffffffffffffff1673ffffffffffffffffffffffffffffffffffffffff1681526020018473ffffffffffffffffffffffffffffffffffffffff1673ffffffffffffffffffffffffffffffffffffffff16815260200183815260200182815260200194505050505060405180910390a1610f5d82610482565b610f67565b600080fd5b5050565b6000809054906101000a900473ffffffffffffffffffffffffffffffffffffffff1673ffffffffffffffffffffffffffffffffffffffff163373ffffffffffffffffffffffffffffffffffffffff16141515610fc657600080fd5b6001600360008373ffffffffffffffffffffffffffffffffffffffff1673ffffffffffffffffffffffffffffffffffffffff16815260200190815260200160002060006101000a81548160ff021916908360ff16021790555050565b60025481565b6000809054906101000a900473ffffffffffffffffffffffffffffffffffffffff1681565b60018181548110151561105c57fe5b90600052602060002090016000915090505481565b60036020528060005260406000206000915054906101000a900460ff1681565b60003073ffffffffffffffffffffffffffffffffffffffff1631905090565b6110b8611270565b6000809054906101000a900473ffffffffffffffffffffffffffffffffffffffff1673ffffffffffffffffffffffffffffffffffffffff163373ffffffffffffffffffffffffffffffffffffffff16148061116257506001600360003373ffffffffffffffffffffffffffffffffffffffff1673ffffffffffffffffffffffffffffffffffffffff16815260200190815260200160002060009054906101000a900460ff1660ff16145b151561116d57600080fd5b60018054806020026020016040519081016040528092919081815260200182805480156111b957602002820191906000526020600020905b8154815260200190600101908083116111a5575b5050505050905090565b8154818355818115116111ea578183600052602060002091820191016111e99190611284565b5b505050565b608060405190810160405280600073ffffffffffffffffffffffffffffffffffffffff168152602001600073ffffffffffffffffffffffffffffffffffffffff16815260200160008152602001600081525090565b81548183558181151161126b5781836000526020600020918201910161126a9190611284565b5b505050565b602060405190810160405280600081525090565b6112a691905b808211156112a257600081600090555060010161128a565b5090565b905600a165627a7a723058209637a94dd29dd5e8d160976521df178589bb8e8951d5fe9858357ba7d0d4f51e0029",
  "source": "pragma solidity ^0.4.18;\n\ncontract MultiSigWallet {\n    address public _owner;\n\n    uint[] public _pendingTransactions;\n    uint public _transactionIndex;     // auto incrememnting transaction ID\n    uint constant MIN_SIGNATURES = 2;     //  need x signatures to sign Transaction\n\n    mapping(address => uint8) public _owners;\n    mapping (uint => Transaction) public _transactions;\n\n    struct Transaction {\n        address source;\n        address destination;\n        uint value;\n        uint signatureCount; //add how many people signed and who\n        mapping (address => uint8) signatures; // keep record of who signed\n    }\n\n    modifier isOwner() {\n        require(msg.sender == _owner);\n        _;\n    }\n\n    modifier validOwner() {\n        require(msg.sender == _owner || _owners[msg.sender] == 1);\n        _;\n    }\n\n    /// @dev logged events\n    event DepositFunds(address source, uint amount);\n    /// @dev full sequence of the transaction event logged\n    event TransactionCreated(address source, address destination, uint value, uint transactionID);\n    event TransactionCompleted(address source, address destination, uint value, uint transactionID);\n    /// @dev keeps track of who is signing the transactions\n    event TransactionSigned(address by, uint transactionID);\n\n\n    /// @dev Contract constructor sets initial owners\n    function MultiSigWallet() public {\n        _owner = msg.sender;\n    }\n\n    /// @dev add new owner to have access, enables the ability to create more than one owner to manage the wallet\n    function addOwner(address newOwner) isOwner public {\n        _owners[newOwner] = 1;\n    }\n\n    /// @dev remove suspicious owners\n    function removeOwner(address existingOwner) isOwner public {\n        _owners[existingOwner] = 0;\n    }\n\n    /// @dev Fallback function, which accepts ether when sent to contract\n    function () public payable {\n        DepositFunds(msg.sender, msg.value);\n    }\n\n    function withdraw(uint amount) public payable { // what is this function for?\n      require(address(this).balance >= msg.value);\n      require(_owners[msg.sender] == 1);\n\n      msg.sender.transfer(amount);\n    }\n\n\n    /// Start by creating your transaction. Since we defined it as a struct,\n    /// we need to define it in a memory context. Update the member attributes.\n    ///\n    /// note, keep transactionID updated\n    function transferTo(address destination, uint value) validOwner public {\n        require(address(this).balance >= value);\n        //add transaction to the data structures\n        _pendingTransactions;\n        _transactionIndex;\n        _owners;\n        _transactions;\n        Transaction memory transaction = Transaction({\n            source: msg.sender,\n            destination: destination,\n            value: value,\n            signatureCount: 0\n        });\n        _transactions[_transactionIndex] = transaction;\n        _pendingTransactions.push(_transactionIndex);\n        _transactionIndex += 1;\n\n      //log that the transaction was created to a specific address\n        TransactionCreated(transaction.source, transaction.destination, transaction.value, _transactionIndex);\n\n    }\n\n    //returns pending transcations\n    function getPendingTransactions() constant validOwner public returns (uint[]) {\n        return _pendingTransactions;\n    }\n\n    /// @dev Allows an owner to confirm a transaction.\n    /// @param transactionId Transaction ID.\n    /// Sign and Execute transaction.\n    function signTransaction(uint transactionId) validOwner public {\n\n        require(transaction.source != 0x0); // Transaction must exist, note: use require(), but can't do require(transaction), .\n        require(msg.sender != _owner);\n        require(transaction.signatures[msg.sender] == 0); // Cannot sign a transaction more than once, use require()\n\n        Transaction storage transaction = _transactions[_pendingTransactions[transactionId]]; //Create variable transaction using storage (which creates a reference point)\n\n        // ???>>> assign the transaction = 1, so that when the function is called again it will fail\n        // transaction = 1;\n\n        transaction.signatureCount += 1; // increment signatureCount\n        TransactionSigned(msg.sender, transactionId); // log transaction\n\n        //  check to see if transaction has enough signatures so that it can actually be completed\n        // if true, make the transaction. Don't forget to log the transaction was completed.\n        if (transaction.signatureCount >= MIN_SIGNATURES) {\n            require(address(this).balance >= transaction.value); //validate transaction\n            transaction.destination.transfer(transaction.value);\n             TransactionCompleted(transaction.source, transaction.destination, transaction.value, transactionId);\n            deleteTransaction(transactionId);\n\n        } else {\n            revert();\n        }\n    }\n\n    /// @dev clean up function\n    function deleteTransaction(uint transactionId) validOwner public {\n      uint8 replace = 0;\n      for(uint i = 0; i < _pendingTransactions.length; i++) {\n        if (1 == replace) {\n          _pendingTransactions[i-1] = _pendingTransactions[i];\n        } else if (transactionId == _pendingTransactions[i]) {\n          replace = 1;\n         }\n      }\n      delete _pendingTransactions[_pendingTransactions.length - 1];\n      _pendingTransactions.length--;\n      delete _transactions[transactionId];\n    }\n\n    /// @return Returns balance\n    function walletBalance() view public returns(uint) {\n        return address(this).balance;\n    }\n\n }\n",
  "sourcePath": "/Users/Morgan/Documents/BlockchainForDevelopers/sp18-midterm-pt2/contracts/MultiSigWallet.sol",
  "compiler": {
    "name": "solc",
    "version": "0.4.19+commit.c4cbbb05.Emscripten.clang"
  },
  "schemaVersion": "2.0.0",
  "updatedAt": "2018-03-14T21:27:30.535Z"
}